{
  "_format": "hh-sol-artifact-1",
  "contractName": "tFAKEUSD",
  "sourceName": "contracts/tFAKEUSD.sol",
  "abi": [
    {
      "inputs": [
        {
          "internalType": "address[]",
          "name": "initialWhitelist",
          "type": "address[]"
        }
      ],
      "stateMutability": "nonpayable",
      "type": "constructor"
    },
    {
      "inputs": [
        {
          "internalType": "address",
          "name": "spender",
          "type": "address"
        },
        {
          "internalType": "uint256",
          "name": "allowance",
          "type": "uint256"
        },
        {
          "internalType": "uint256",
          "name": "needed",
          "type": "uint256"
        }
      ],
      "name": "ERC20InsufficientAllowance",
      "type": "error"
    },
    {
      "inputs": [
        {
          "internalType": "address",
          "name": "sender",
          "type": "address"
        },
        {
          "internalType": "uint256",
          "name": "balance",
          "type": "uint256"
        },
        {
          "internalType": "uint256",
          "name": "needed",
          "type": "uint256"
        }
      ],
      "name": "ERC20InsufficientBalance",
      "type": "error"
    },
    {
      "inputs": [
        {
          "internalType": "address",
          "name": "approver",
          "type": "address"
        }
      ],
      "name": "ERC20InvalidApprover",
      "type": "error"
    },
    {
      "inputs": [
        {
          "internalType": "address",
          "name": "receiver",
          "type": "address"
        }
      ],
      "name": "ERC20InvalidReceiver",
      "type": "error"
    },
    {
      "inputs": [
        {
          "internalType": "address",
          "name": "sender",
          "type": "address"
        }
      ],
      "name": "ERC20InvalidSender",
      "type": "error"
    },
    {
      "inputs": [
        {
          "internalType": "address",
          "name": "spender",
          "type": "address"
        }
      ],
      "name": "ERC20InvalidSpender",
      "type": "error"
    },
    {
      "inputs": [
        {
          "internalType": "address",
          "name": "owner",
          "type": "address"
        }
      ],
      "name": "OwnableInvalidOwner",
      "type": "error"
    },
    {
      "inputs": [
        {
          "internalType": "address",
          "name": "account",
          "type": "address"
        }
      ],
      "name": "OwnableUnauthorizedAccount",
      "type": "error"
    },
    {
      "anonymous": false,
      "inputs": [
        {
          "indexed": true,
          "internalType": "address",
          "name": "owner",
          "type": "address"
        },
        {
          "indexed": true,
          "internalType": "address",
          "name": "spender",
          "type": "address"
        },
        {
          "indexed": false,
          "internalType": "uint256",
          "name": "value",
          "type": "uint256"
        }
      ],
      "name": "Approval",
      "type": "event"
    },
    {
      "anonymous": false,
      "inputs": [
        {
          "indexed": true,
          "internalType": "address",
          "name": "to",
          "type": "address"
        },
        {
          "indexed": false,
          "internalType": "uint256",
          "name": "amount",
          "type": "uint256"
        }
      ],
      "name": "Minted",
      "type": "event"
    },
    {
      "anonymous": false,
      "inputs": [
        {
          "indexed": true,
          "internalType": "address",
          "name": "previousOwner",
          "type": "address"
        },
        {
          "indexed": true,
          "internalType": "address",
          "name": "newOwner",
          "type": "address"
        }
      ],
      "name": "OwnershipTransferred",
      "type": "event"
    },
    {
      "anonymous": false,
      "inputs": [
        {
          "indexed": true,
          "internalType": "address",
          "name": "from",
          "type": "address"
        },
        {
          "indexed": true,
          "internalType": "address",
          "name": "to",
          "type": "address"
        },
        {
          "indexed": false,
          "internalType": "uint256",
          "name": "value",
          "type": "uint256"
        }
      ],
      "name": "Transfer",
      "type": "event"
    },
    {
      "anonymous": false,
      "inputs": [
        {
          "indexed": true,
          "internalType": "address",
          "name": "account",
          "type": "address"
        },
        {
          "indexed": false,
          "internalType": "bool",
          "name": "status",
          "type": "bool"
        }
      ],
      "name": "WhitelistUpdated",
      "type": "event"
    },
    {
      "inputs": [],
      "name": "COOLDOWN_PERIOD",
      "outputs": [
        {
          "internalType": "uint256",
          "name": "",
          "type": "uint256"
        }
      ],
      "stateMutability": "view",
      "type": "function"
    },
    {
      "inputs": [],
      "name": "DEFAULT_MINT_AMOUNT",
      "outputs": [
        {
          "internalType": "uint256",
          "name": "",
          "type": "uint256"
        }
      ],
      "stateMutability": "view",
      "type": "function"
    },
    {
      "inputs": [
        {
          "internalType": "address",
          "name": "owner",
          "type": "address"
        },
        {
          "internalType": "address",
          "name": "spender",
          "type": "address"
        }
      ],
      "name": "allowance",
      "outputs": [
        {
          "internalType": "uint256",
          "name": "",
          "type": "uint256"
        }
      ],
      "stateMutability": "view",
      "type": "function"
    },
    {
      "inputs": [
        {
          "internalType": "address",
          "name": "spender",
          "type": "address"
        },
        {
          "internalType": "uint256",
          "name": "value",
          "type": "uint256"
        }
      ],
      "name": "approve",
      "outputs": [
        {
          "internalType": "bool",
          "name": "",
          "type": "bool"
        }
      ],
      "stateMutability": "nonpayable",
      "type": "function"
    },
    {
      "inputs": [
        {
          "internalType": "address",
          "name": "account",
          "type": "address"
        }
      ],
      "name": "balanceOf",
      "outputs": [
        {
          "internalType": "uint256",
          "name": "",
          "type": "uint256"
        }
      ],
      "stateMutability": "view",
      "type": "function"
    },
    {
      "inputs": [
        {
          "internalType": "address",
          "name": "account",
          "type": "address"
        }
      ],
      "name": "canMint",
      "outputs": [
        {
          "internalType": "bool",
          "name": "",
          "type": "bool"
        }
      ],
      "stateMutability": "view",
      "type": "function"
    },
    {
      "inputs": [],
      "name": "claim",
      "outputs": [],
      "stateMutability": "nonpayable",
      "type": "function"
    },
    {
      "inputs": [],
      "name": "decimals",
      "outputs": [
        {
          "internalType": "uint8",
          "name": "",
          "type": "uint8"
        }
      ],
      "stateMutability": "view",
      "type": "function"
    },
    {
      "inputs": [
        {
          "internalType": "address",
          "name": "",
          "type": "address"
        }
      ],
      "name": "lastMintTime",
      "outputs": [
        {
          "internalType": "uint256",
          "name": "",
          "type": "uint256"
        }
      ],
      "stateMutability": "view",
      "type": "function"
    },
    {
      "inputs": [
        {
          "internalType": "address",
          "name": "to",
          "type": "address"
        },
        {
          "internalType": "uint256",
          "name": "amount",
          "type": "uint256"
        }
      ],
      "name": "mint",
      "outputs": [],
      "stateMutability": "nonpayable",
      "type": "function"
    },
    {
      "inputs": [],
      "name": "name",
      "outputs": [
        {
          "internalType": "string",
          "name": "",
          "type": "string"
        }
      ],
      "stateMutability": "view",
      "type": "function"
    },
    {
      "inputs": [],
      "name": "owner",
      "outputs": [
        {
          "internalType": "address",
          "name": "",
          "type": "address"
        }
      ],
      "stateMutability": "view",
      "type": "function"
    },
    {
      "inputs": [],
      "name": "renounceOwnership",
      "outputs": [],
      "stateMutability": "nonpayable",
      "type": "function"
    },
    {
      "inputs": [
        {
          "internalType": "address",
          "name": "account",
          "type": "address"
        },
        {
          "internalType": "bool",
          "name": "status",
          "type": "bool"
        }
      ],
      "name": "setWhitelist",
      "outputs": [],
      "stateMutability": "nonpayable",
      "type": "function"
    },
    {
      "inputs": [
        {
          "internalType": "address[]",
          "name": "accounts",
          "type": "address[]"
        },
        {
          "internalType": "bool",
          "name": "status",
          "type": "bool"
        }
      ],
      "name": "setWhitelistBatch",
      "outputs": [],
      "stateMutability": "nonpayable",
      "type": "function"
    },
    {
      "inputs": [],
      "name": "symbol",
      "outputs": [
        {
          "internalType": "string",
          "name": "",
          "type": "string"
        }
      ],
      "stateMutability": "view",
      "type": "function"
    },
    {
      "inputs": [
        {
          "internalType": "address",
          "name": "account",
          "type": "address"
        }
      ],
      "name": "timeUntilNextMint",
      "outputs": [
        {
          "internalType": "uint256",
          "name": "",
          "type": "uint256"
        }
      ],
      "stateMutability": "view",
      "type": "function"
    },
    {
      "inputs": [],
      "name": "totalSupply",
      "outputs": [
        {
          "internalType": "uint256",
          "name": "",
          "type": "uint256"
        }
      ],
      "stateMutability": "view",
      "type": "function"
    },
    {
      "inputs": [
        {
          "internalType": "address",
          "name": "to",
          "type": "address"
        },
        {
          "internalType": "uint256",
          "name": "value",
          "type": "uint256"
        }
      ],
      "name": "transfer",
      "outputs": [
        {
          "internalType": "bool",
          "name": "",
          "type": "bool"
        }
      ],
      "stateMutability": "nonpayable",
      "type": "function"
    },
    {
      "inputs": [
        {
          "internalType": "address",
          "name": "from",
          "type": "address"
        },
        {
          "internalType": "address",
          "name": "to",
          "type": "address"
        },
        {
          "internalType": "uint256",
          "name": "value",
          "type": "uint256"
        }
      ],
      "name": "transferFrom",
      "outputs": [
        {
          "internalType": "bool",
          "name": "",
          "type": "bool"
        }
      ],
      "stateMutability": "nonpayable",
      "type": "function"
    },
    {
      "inputs": [
        {
          "internalType": "address",
          "name": "newOwner",
          "type": "address"
        }
      ],
      "name": "transferOwnership",
      "outputs": [],
      "stateMutability": "nonpayable",
      "type": "function"
    },
    {
      "inputs": [
        {
          "internalType": "address",
          "name": "",
          "type": "address"
        }
      ],
      "name": "whitelisted",
      "outputs": [
        {
          "internalType": "bool",
          "name": "",
          "type": "bool"
        }
      ],
      "stateMutability": "view",
      "type": "function"
    }
  ],
  "bytecode": "0x60806040523480156200001157600080fd5b50604051620014b4380380620014b48339810160408190526200003491620002ce565b336040518060400160405280600c81526020016b15195cdd0811985ad95554d160a21b815250604051806040016040528060088152602001671d119052d15554d160c21b81525081600390816200008c91906200042f565b5060046200009b82826200042f565b5050506001600160a01b038116620000cd57604051631e4fbdf760e01b81526000600482015260240160405180910390fd5b620000d88162000249565b5033600081815260076020908152604091829020805460ff1916600190811790915591519182527ff93f9a76c1bf3444d22400a00cb9fe990e6abe9dbb333fda48859cfee864543d910160405180910390a260005b8151811015620002415760006001600160a01b0316828281518110620001575762000157620004fb565b60200260200101516001600160a01b0316146200022c57600160076000848481518110620001895762000189620004fb565b60200260200101516001600160a01b03166001600160a01b0316815260200190815260200160002060006101000a81548160ff021916908315150217905550818181518110620001dd57620001dd620004fb565b60200260200101516001600160a01b03167ff93f9a76c1bf3444d22400a00cb9fe990e6abe9dbb333fda48859cfee864543d600160405162000223911515815260200190565b60405180910390a25b80620002388162000511565b9150506200012d565b505062000539565b600580546001600160a01b038381166001600160a01b0319831681179093556040519116919082907f8be0079c531659141344cd1fd0a4f28419497f9722a3daafe3b4186f6b6457e090600090a35050565b634e487b7160e01b600052604160045260246000fd5b80516001600160a01b0381168114620002c957600080fd5b919050565b60006020808385031215620002e257600080fd5b82516001600160401b0380821115620002fa57600080fd5b818501915085601f8301126200030f57600080fd5b8151818111156200032457620003246200029b565b8060051b604051601f19603f830116810181811085821117156200034c576200034c6200029b565b6040529182528482019250838101850191888311156200036b57600080fd5b938501935b8285101562000394576200038485620002b1565b8452938501939285019262000370565b98975050505050505050565b600181811c90821680620003b557607f821691505b602082108103620003d657634e487b7160e01b600052602260045260246000fd5b50919050565b601f8211156200042a57600081815260208120601f850160051c81016020861015620004055750805b601f850160051c820191505b81811015620004265782815560010162000411565b5050505b505050565b81516001600160401b038111156200044b576200044b6200029b565b62000463816200045c8454620003a0565b84620003dc565b602080601f8311600181146200049b5760008415620004825750858301515b600019600386901b1c1916600185901b17855562000426565b600085815260208120601f198616915b82811015620004cc57888601518255948401946001909101908401620004ab565b5085821015620004eb5787850151600019600388901b60f8161c191681555b5050505050600190811b01905550565b634e487b7160e01b600052603260045260246000fd5b6000600182016200053257634e487b7160e01b600052601160045260246000fd5b5060010190565b610f6b80620005496000396000f3fe608060405234801561001057600080fd5b50600436106101425760003560e01c806370a08231116100b8578063a9059cbb1161007c578063a9059cbb14610294578063ab466a8d146102a7578063c2ba4744146102b7578063d936547e146102ca578063dd62ed3e146102ed578063f2fde38b1461032657600080fd5b806370a082311461022d578063715018a6146102565780638da5cb5b1461025e57806395d89b4114610279578063a58da0be1461028157600080fd5b8063313ce5671161010a578063313ce567146101c457806340c10f19146101d35780634e71d92d146101e857806353d6fd59146101f05780636aa71d18146102035780636e99d52f1461022357600080fd5b806306fdde0314610147578063095ea7b3146101655780631306834d1461018857806318160ddd146101a957806323b872dd146101b1575b600080fd5b61014f610339565b60405161015c9190610cb4565b60405180910390f35b610178610173366004610d1e565b6103cb565b604051901515815260200161015c565b61019b610196366004610d48565b6103e5565b60405190815260200161015c565b60025461019b565b6101786101bf366004610d63565b610458565b6040516012815260200161015c565b6101e66101e1366004610d1e565b61047c565b005b6101e66105bf565b6101e66101fe366004610daf565b610700565b61019b610211366004610d48565b60066020526000908152604090205481565b61019b6201518081565b61019b61023b366004610d48565b6001600160a01b031660009081526020819052604090205490565b6101e6610760565b6005546040516001600160a01b03909116815260200161015c565b61014f610774565b6101e661028f366004610de2565b610783565b6101786102a2366004610d1e565b61086d565b61019b683635c9adc5dea0000081565b6101786102c5366004610d48565b61087b565b6101786102d8366004610d48565b60076020526000908152604090205460ff1681565b61019b6102fb366004610e66565b6001600160a01b03918216600090815260016020908152604080832093909416825291909152205490565b6101e6610334366004610d48565b6108d4565b60606003805461034890610e90565b80601f016020809104026020016040519081016040528092919081815260200182805461037490610e90565b80156103c15780601f10610396576101008083540402835291602001916103c1565b820191906000526020600020905b8154815290600101906020018083116103a457829003601f168201915b5050505050905090565b6000336103d9818585610912565b60019150505b92915050565b6001600160a01b03811660009081526007602052604081205460ff161561040e57506000919050565b6001600160a01b038216600090815260066020526040812054610435906201518090610ee0565b90508042106104475750600092915050565b6104514282610ef3565b9392505050565b600033610466858285610924565b61047185858561099d565b506001949350505050565b6001600160a01b0382166104d75760405162461bcd60e51b815260206004820152601b60248201527f43616e6e6f74206d696e7420746f207a65726f2061646472657373000000000060448201526064015b60405180910390fd5b3360009081526007602052604090205460ff1661056e573360009081526006602052604090205461050c906201518090610ee0565b42101561055b5760405162461bcd60e51b815260206004820181905260248201527f4d757374207761697420323420686f757273206265747765656e206d696e747360448201526064016104ce565b3360009081526006602052604090204290555b61057882826109fc565b816001600160a01b03167f30385c845b448a36257a6a1716e6ad2e1bc2cbe333cde1e69fe849ad6511adfe826040516105b391815260200190565b60405180910390a25050565b3361060c5760405162461bcd60e51b815260206004820152601b60248201527f43616e6e6f74206d696e7420746f207a65726f2061646472657373000000000060448201526064016104ce565b3360009081526007602052604090205460ff166106ad5733600090815260066020526040902054610641906201518090610ee0565b42101561069a5760405162461bcd60e51b815260206004820152602160248201527f4d757374207761697420323420686f757273206265747765656e20636c61696d6044820152607360f81b60648201526084016104ce565b3360009081526006602052604090204290555b6106c033683635c9adc5dea000006109fc565b604051683635c9adc5dea00000815233907f30385c845b448a36257a6a1716e6ad2e1bc2cbe333cde1e69fe849ad6511adfe9060200160405180910390a2565b610708610a36565b6001600160a01b038216600081815260076020908152604091829020805460ff191685151590811790915591519182527ff93f9a76c1bf3444d22400a00cb9fe990e6abe9dbb333fda48859cfee864543d91016105b3565b610768610a36565b6107726000610a63565b565b60606004805461034890610e90565b61078b610a36565b60005b828110156108675781600760008686858181106107ad576107ad610f06565b90506020020160208101906107c29190610d48565b6001600160a01b031681526020810191909152604001600020805460ff19169115159190911790558383828181106107fc576107fc610f06565b90506020020160208101906108119190610d48565b6001600160a01b03167ff93f9a76c1bf3444d22400a00cb9fe990e6abe9dbb333fda48859cfee864543d8360405161084d911515815260200190565b60405180910390a28061085f81610f1c565b91505061078e565b50505050565b6000336103d981858561099d565b6001600160a01b03811660009081526007602052604081205460ff16156108a457506001919050565b6001600160a01b0382166000908152600660205260409020546108cb906201518090610ee0565b42101592915050565b6108dc610a36565b6001600160a01b03811661090657604051631e4fbdf760e01b8152600060048201526024016104ce565b61090f81610a63565b50565b61091f8383836001610ab5565b505050565b6001600160a01b03838116600090815260016020908152604080832093861683529290522054600019811015610867578181101561098e57604051637dc7a0d960e11b81526001600160a01b038416600482015260248101829052604481018390526064016104ce565b61086784848484036000610ab5565b6001600160a01b0383166109c757604051634b637e8f60e11b8152600060048201526024016104ce565b6001600160a01b0382166109f15760405163ec442f0560e01b8152600060048201526024016104ce565b61091f838383610b8a565b6001600160a01b038216610a265760405163ec442f0560e01b8152600060048201526024016104ce565b610a3260008383610b8a565b5050565b6005546001600160a01b031633146107725760405163118cdaa760e01b81523360048201526024016104ce565b600580546001600160a01b038381166001600160a01b0319831681179093556040519116919082907f8be0079c531659141344cd1fd0a4f28419497f9722a3daafe3b4186f6b6457e090600090a35050565b6001600160a01b038416610adf5760405163e602df0560e01b8152600060048201526024016104ce565b6001600160a01b038316610b0957604051634a1406b160e11b8152600060048201526024016104ce565b6001600160a01b038085166000908152600160209081526040808320938716835292905220829055801561086757826001600160a01b0316846001600160a01b03167f8c5be1e5ebec7d5bd14f71427d1e84f3dd0314c0f7b2291e5b200ac8c7c3b92584604051610b7c91815260200190565b60405180910390a350505050565b6001600160a01b038316610bb5578060026000828254610baa9190610ee0565b90915550610c279050565b6001600160a01b03831660009081526020819052604090205481811015610c085760405163391434e360e21b81526001600160a01b038516600482015260248101829052604481018390526064016104ce565b6001600160a01b03841660009081526020819052604090209082900390555b6001600160a01b038216610c4357600280548290039055610c62565b6001600160a01b03821660009081526020819052604090208054820190555b816001600160a01b0316836001600160a01b03167fddf252ad1be2c89b69c2b068fc378daa952ba7f163c4a11628f55a4df523b3ef83604051610ca791815260200190565b60405180910390a3505050565b600060208083528351808285015260005b81811015610ce157858101830151858201604001528201610cc5565b506000604082860101526040601f19601f8301168501019250505092915050565b80356001600160a01b0381168114610d1957600080fd5b919050565b60008060408385031215610d3157600080fd5b610d3a83610d02565b946020939093013593505050565b600060208284031215610d5a57600080fd5b61045182610d02565b600080600060608486031215610d7857600080fd5b610d8184610d02565b9250610d8f60208501610d02565b9150604084013590509250925092565b80358015158114610d1957600080fd5b60008060408385031215610dc257600080fd5b610dcb83610d02565b9150610dd960208401610d9f565b90509250929050565b600080600060408486031215610df757600080fd5b833567ffffffffffffffff80821115610e0f57600080fd5b818601915086601f830112610e2357600080fd5b813581811115610e3257600080fd5b8760208260051b8501011115610e4757600080fd5b602092830195509350610e5d9186019050610d9f565b90509250925092565b60008060408385031215610e7957600080fd5b610e8283610d02565b9150610dd960208401610d02565b600181811c90821680610ea457607f821691505b602082108103610ec457634e487b7160e01b600052602260045260246000fd5b50919050565b634e487b7160e01b600052601160045260246000fd5b808201808211156103df576103df610eca565b818103818111156103df576103df610eca565b634e487b7160e01b600052603260045260246000fd5b600060018201610f2e57610f2e610eca565b506001019056fea264697066735822122054f737196e236d2c7a2d27744dba3b02f4528ac9645488908d35d8d64f7f97c564736f6c63430008140033",
  "linkReferences": {},
  "deployedLinkReferences": {}
}